{"contracts/BigViewMission.sol":{"BigViewMission":{"abi":[{"inputs":[],"stateMutability":"nonpayable","type":"constructor"},{"inputs":[{"internalType":"address","name":"owner","type":"address"}],"name":"OwnableInvalidOwner","type":"error"},{"inputs":[{"internalType":"address","name":"account","type":"address"}],"name":"OwnableUnauthorizedAccount","type":"error"},{"inputs":[],"name":"ReentrancyGuardReentrantCall","type":"error"},{"anonymous":false,"inputs":[{"indexed":true,"internalType":"address","name":"previousOwner","type":"address"},{"indexed":true,"internalType":"address","name":"newOwner","type":"address"}],"name":"OwnershipTransferred","type":"event"},{"anonymous":false,"inputs":[{"indexed":true,"internalType":"uint256","name":"_questId","type":"uint256"},{"indexed":true,"internalType":"address","name":"player","type":"address"}],"name":"QuestJoined","type":"event"},{"anonymous":false,"inputs":[{"indexed":true,"internalType":"address","name":"player","type":"address"},{"indexed":false,"internalType":"uint256","name":"questId","type":"uint256"},{"indexed":false,"internalType":"uint256","name":"reward","type":"uint256"}],"name":"QuestSolved","type":"event"},{"inputs":[{"internalType":"uint256","name":"_questId","type":"uint256"},{"internalType":"string","name":"_secretKey","type":"string"}],"name":"claimTreasure","outputs":[],"stateMutability":"nonpayable","type":"function"},{"inputs":[{"internalType":"address","name":"","type":"address"},{"internalType":"uint256","name":"","type":"uint256"}],"name":"hasCompletedQuest","outputs":[{"internalType":"bool","name":"","type":"bool"}],"stateMutability":"view","type":"function"},{"inputs":[{"internalType":"uint256","name":"","type":"uint256"},{"internalType":"address","name":"","type":"address"}],"name":"hasJoined","outputs":[{"internalType":"bool","name":"","type":"bool"}],"stateMutability":"view","type":"function"},{"inputs":[{"internalType":"address","name":"forwarder","type":"address"}],"name":"isTrustedForwarder","outputs":[{"internalType":"bool","name":"","type":"bool"}],"stateMutability":"view","type":"function"},{"inputs":[{"internalType":"uint256","name":"_questId","type":"uint256"}],"name":"joinQuest","outputs":[],"stateMutability":"payable","type":"function"},{"inputs":[{"internalType":"string","name":"_name","type":"string"},{"internalType":"uint256","name":"_reward","type":"uint256"},{"internalType":"uint256","name":"_fee","type":"uint256"},{"internalType":"bytes32","name":"_secretHash","type":"bytes32"},{"internalType":"uint256","name":"_durationMinutes","type":"uint256"}],"name":"launchNewQuest","outputs":[],"stateMutability":"nonpayable","type":"function"},{"inputs":[],"name":"owner","outputs":[{"internalType":"address","name":"","type":"address"}],"stateMutability":"view","type":"function"},{"inputs":[{"internalType":"address","name":"","type":"address"}],"name":"playerLevel","outputs":[{"internalType":"uint256","name":"","type":"uint256"}],"stateMutability":"view","type":"function"},{"inputs":[{"internalType":"uint256","name":"","type":"uint256"}],"name":"quests","outputs":[{"internalType":"bytes32","name":"secretHash","type":"bytes32"},{"internalType":"uint256","name":"reward","type":"uint256"},{"internalType":"bool","name":"isClaimed","type":"bool"},{"internalType":"uint256","name":"totalPricePool","type":"uint256"},{"internalType":"string","name":"name","type":"string"},{"internalType":"uint256","name":"entryFee","type":"uint256"},{"internalType":"bool","name":"isActive","type":"bool"},{"internalType":"uint256","name":"deadline","type":"uint256"}],"stateMutability":"view","type":"function"},{"inputs":[],"name":"renounceOwnership","outputs":[],"stateMutability":"nonpayable","type":"function"},{"inputs":[{"internalType":"address","name":"","type":"address"}],"name":"submissionCommitments","outputs":[{"internalType":"bytes32","name":"","type":"bytes32"}],"stateMutability":"view","type":"function"},{"inputs":[],"name":"totalQuests","outputs":[{"internalType":"uint256","name":"","type":"uint256"}],"stateMutability":"view","type":"function"},{"inputs":[{"internalType":"address","name":"newOwner","type":"address"}],"name":"transferOwnership","outputs":[],"stateMutability":"nonpayable","type":"function"},{"inputs":[],"name":"trustedForwarder","outputs":[{"internalType":"address","name":"","type":"address"}],"stateMutability":"view","type":"function"},{"stateMutability":"payable","type":"receive"}],"evm":{"bytecode":{"linkReferences":{},"object":"60a060405234801561001057600080fd5b50735ff137d4b0fdcd49dca30c7cf57e578a026d2789608052338061004f57604051631e4fbdf760e01b81526000600482015260240160405180910390fd5b61005881610062565b50600180556100b2565b600080546001600160a01b038381166001600160a01b0319831681178455604051919092169283917f8be0079c531659141344cd1fd0a4f28419497f9722a3daafe3b4186f6b6457e09190a35050565b608051610f1c6100db600039600081816101af0152818161026101526109e40152610f1c6000f3fe6080604052600436106100e15760003560e01c806378ff2bda1161007f578063d5a3e38d11610059578063d5a3e38d146102b7578063e085f980146102d7578063f2fde38b1461030b578063f8be73471461032b57600080fd5b806378ff2bda1461023f5780637da0a877146102525780638da5cb5b1461029957600080fd5b806354fcf2e0116100bb57806354fcf2e01461017c578063572b6c051461019257806368194719146101ef578063715018a61461022a57600080fd5b80630a61aa57146100ed57806314c84f3a1461012d5780631cb10fc31461015a57600080fd5b366100e857005b600080fd5b3480156100f957600080fd5b5061011a610108366004610a5a565b60066020526000908152604090205481565b6040519081526020015b60405180910390f35b34801561013957600080fd5b5061011a610148366004610a5a565b60036020526000908152604090205481565b34801561016657600080fd5b5061017a610175366004610b1f565b610366565b005b34801561018857600080fd5b5061011a60075481565b34801561019e57600080fd5b506101df6101ad366004610a5a565b7f00000000000000000000000000000000000000000000000000000000000000006001600160a01b0390811691161490565b6040519015158152602001610124565b3480156101fb57600080fd5b506101df61020a366004610b66565b600560209081526000928352604080842090915290825290205460ff1681565b34801561023657600080fd5b5061017a61052d565b61017a61024d366004610b92565b610541565b34801561025e57600080fd5b507f00000000000000000000000000000000000000000000000000000000000000005b6040516001600160a01b039091168152602001610124565b3480156102a557600080fd5b506000546001600160a01b0316610281565b3480156102c357600080fd5b5061017a6102d2366004610bab565b6106d9565b3480156102e357600080fd5b506102f76102f2366004610b92565b6107d6565b604051610124989796959493929190610c2c565b34801561031757600080fd5b5061017a610326366004610a5a565b6108ad565b34801561033757600080fd5b506101df610346366004610c99565b600460209081526000928352604080842090915290825290205460ff1681565b61036e6108eb565b6000610378610915565b600084815260026020908152604091829020805492519394509261039e91869101610cc3565b60405160208183030381529060405280519060200120146103f25760405162461bcd60e51b815260206004820152600960248201526857726f6e67206b657960b81b60448201526064015b60405180910390fd5b6000816003015482600101546104089190610cf5565b60028301805460ff191660011790556001600160a01b038416600090815260036020526040812080549293509061043e83610d0e565b91905055506000836001600160a01b03168260405160006040518083038185875af1925050503d8060008114610490576040519150601f19603f3d011682016040523d82523d6000602084013e610495565b606091505b50509050806104d85760405162461bcd60e51b815260206004820152600f60248201526e151c985b9cd9995c8819985a5b1959608a1b60448201526064016103e9565b60408051878152602081018490526001600160a01b038616917ffe54ac7e5780d800cd4825e83ab7968eddd4ccaf49aa70be34514ebf562c90fb910160405180910390a25050505061052960018055565b5050565b610535610924565b61053f6000610982565b565b600061054b610915565b600083815260026020526040902060068101549192509060ff166105a65760405162461bcd60e51b81526020600482015260126024820152714d697373696f6e204e6f742061637469766560701b60448201526064016103e9565b6001600160a01b038216600090815260036020526040902054831461060d5760405162461bcd60e51b815260206004820152601f60248201527f436f6d706c6574652070726576696f7573206c6576656c73206669727374210060448201526064016103e9565b80600501543410156106545760405162461bcd60e51b815260206004820152601060248201526f496e73756666696369656e742066656560801b60448201526064016103e9565b60008381526005602081815260408084206001600160a01b03871685529091528220805460ff1916600117905582015460038301805491929091610699908490610cf5565b90915550506040516001600160a01b0383169084907ff6274a6be8be8dcefad9914f7556a14333216390d2468f1b83669847b9ef193690600090a3505050565b6106e1610924565b6040518061010001604052808381526020018581526020016000151581526020016000815260200186815260200184815260200160011515815260200182603c61072b9190610d27565b6107359042610cf5565b90526007546000908152600260208181526040928390208451815590840151600182015591830151908201805460ff1916911515919091179055606082015160038201556080820151600482019061078d9082610dc7565b5060a0820151600582015560c082015160068201805460ff191691151591909117905560e09091015160079182015580549060006107ca83610d0e565b91905055505050505050565b60026020819052600091825260409091208054600182015492820154600383015460048401805493959460ff9093169391929161081290610d3e565b80601f016020809104026020016040519081016040528092919081815260200182805461083e90610d3e565b801561088b5780601f106108605761010080835404028352916020019161088b565b820191906000526020600020905b81548152906001019060200180831161086e57829003601f168201915b50505050600583015460068401546007909401549293909260ff909116915088565b6108b5610924565b6001600160a01b0381166108df57604051631e4fbdf760e01b8152600060048201526024016103e9565b6108e881610982565b50565b60026001540361090e57604051633ee5aeb560e01b815260040160405180910390fd5b6002600155565b600061091f6109d2565b905090565b61092c610915565b6001600160a01b03166109476000546001600160a01b031690565b6001600160a01b03161461053f5761095d610915565b60405163118cdaa760e01b81526001600160a01b0390911660048201526024016103e9565b600080546001600160a01b038381166001600160a01b0319831681178455604051919092169283917f8be0079c531659141344cd1fd0a4f28419497f9722a3daafe3b4186f6b6457e09190a35050565b6000366014808210801590610a0f57507f00000000000000000000000000000000000000000000000000000000000000006001600160a01b031633145b15610a3657610a2336828403816000610e87565b610a2c91610eb1565b60601c9250505090565b339250505090565b80356001600160a01b0381168114610a5557600080fd5b919050565b600060208284031215610a6c57600080fd5b610a7582610a3e565b9392505050565b634e487b7160e01b600052604160045260246000fd5b600082601f830112610aa357600080fd5b813567ffffffffffffffff80821115610abe57610abe610a7c565b604051601f8301601f19908116603f01168101908282118183101715610ae657610ae6610a7c565b81604052838152866020858801011115610aff57600080fd5b836020870160208301376000602085830101528094505050505092915050565b60008060408385031215610b3257600080fd5b82359150602083013567ffffffffffffffff811115610b5057600080fd5b610b5c85828601610a92565b9150509250929050565b60008060408385031215610b7957600080fd5b82359150610b8960208401610a3e565b90509250929050565b600060208284031215610ba457600080fd5b5035919050565b600080600080600060a08688031215610bc357600080fd5b853567ffffffffffffffff811115610bda57600080fd5b610be688828901610a92565b9860208801359850604088013597606081013597506080013595509350505050565b60005b83811015610c23578181015183820152602001610c0b565b50506000910152565b60006101008a83528960208401528815156040840152876060840152806080840152865180828501526101209150610c6a8183860160208b01610c08565b60a084019690965293151560c08301525060e0810191909152601f909201601f19169091010195945050505050565b60008060408385031215610cac57600080fd5b610cb583610a3e565b946020939093013593505050565b60008251610cd5818460208701610c08565b9190910192915050565b634e487b7160e01b600052601160045260246000fd5b80820180821115610d0857610d08610cdf565b92915050565b600060018201610d2057610d20610cdf565b5060010190565b8082028115828204841417610d0857610d08610cdf565b600181811c90821680610d5257607f821691505b602082108103610d7257634e487b7160e01b600052602260045260246000fd5b50919050565b601f821115610dc257600081815260208120601f850160051c81016020861015610d9f5750805b601f850160051c820191505b81811015610dbe57828155600101610dab565b5050505b505050565b815167ffffffffffffffff811115610de157610de1610a7c565b610df581610def8454610d3e565b84610d78565b602080601f831160018114610e2a5760008415610e125750858301515b600019600386901b1c1916600185901b178555610dbe565b600085815260208120601f198616915b82811015610e5957888601518255948401946001909101908401610e3a565b5085821015610e775787850151600019600388901b60f8161c191681555b5050505050600190811b01905550565b60008085851115610e9757600080fd5b83861115610ea457600080fd5b5050820193919092039150565b6bffffffffffffffffffffffff198135818116916014851015610ede5780818660140360031b1b83161692505b50509291505056fea2646970667358221220c298e76ae89039f8b8537a5ea7455ac7c8f32f85c5efda61f48a5ae529877eb064736f6c63430008140033","opcodes":"PUSH1 0xA0 PUSH1 0x40 MSTORE CALLVALUE DUP1 ISZERO PUSH2 0x10 JUMPI PUSH1 0x0 DUP1 REVERT JUMPDEST POP PUSH20 0x5FF137D4B0FDCD49DCA30C7CF57E578A026D2789 PUSH1 0x80 MSTORE CALLER DUP1 PUSH2 0x4F JUMPI PUSH1 0x40 MLOAD PUSH4 0x1E4FBDF7 PUSH1 0xE0 SHL DUP2 MSTORE PUSH1 0x0 PUSH1 0x4 DUP3 ADD MSTORE PUSH1 0x24 ADD PUSH1 0x40 MLOAD DUP1 SWAP2 SUB SWAP1 REVERT JUMPDEST PUSH2 0x58 DUP2 PUSH2 0x62 JUMP JUMPDEST POP PUSH1 0x1 DUP1 SSTORE PUSH2 0xB2 JUMP JUMPDEST PUSH1 0x0 DUP1 SLOAD PUSH1 0x1 PUSH1 0x1 PUSH1 0xA0 SHL SUB DUP4 DUP2 AND PUSH1 0x1 PUSH1 0x1 PUSH1 0xA0 SHL SUB NOT DUP4 AND DUP2 OR DUP5 SSTORE PUSH1 0x40 MLOAD SWAP2 SWAP1 SWAP3 AND SWAP3 DUP4 SWAP2 PUSH32 0x8BE0079C531659141344CD1FD0A4F28419497F9722A3DAAFE3B4186F6B6457E0 SWAP2 SWAP1 LOG3 POP POP JUMP JUMPDEST PUSH1 0x80 MLOAD PUSH2 0xF1C PUSH2 0xDB PUSH1 0x0 CODECOPY PUSH1 0x0 DUP2 DUP2 PUSH2 0x1AF ADD MSTORE DUP2 DUP2 PUSH2 0x261 ADD MSTORE PUSH2 0x9E4 ADD MSTORE PUSH2 0xF1C PUSH1 0x0 RETURN INVALID PUSH1 0x80 PUSH1 0x40 MSTORE PUSH1 0x4 CALLDATASIZE LT PUSH2 0xE1 JUMPI PUSH1 0x0 CALLDATALOAD PUSH1 0xE0 SHR DUP1 PUSH4 0x78FF2BDA GT PUSH2 0x7F JUMPI DUP1 PUSH4 0xD5A3E38D GT PUSH2 0x59 JUMPI DUP1 PUSH4 0xD5A3E38D EQ PUSH2 0x2B7 JUMPI DUP1 PUSH4 0xE085F980 EQ PUSH2 0x2D7 JUMPI DUP1 PUSH4 0xF2FDE38B EQ PUSH2 0x30B JUMPI DUP1 PUSH4 0xF8BE7347 EQ PUSH2 0x32B JUMPI PUSH1 0x0 DUP1 REVERT JUMPDEST DUP1 PUSH4 0x78FF2BDA EQ PUSH2 0x23F JUMPI DUP1 PUSH4 0x7DA0A877 EQ PUSH2 0x252 JUMPI DUP1 PUSH4 0x8DA5CB5B EQ PUSH2 0x299 JUMPI PUSH1 0x0 DUP1 REVERT JUMPDEST DUP1 PUSH4 0x54FCF2E0 GT PUSH2 0xBB JUMPI DUP1 PUSH4 0x54FCF2E0 EQ PUSH2 0x17C JUMPI DUP1 PUSH4 0x572B6C05 EQ PUSH2 0x192 JUMPI DUP1 PUSH4 0x68194719 EQ PUSH2 0x1EF JUMPI DUP1 PUSH4 0x715018A6 EQ PUSH2 0x22A JUMPI PUSH1 0x0 DUP1 REVERT JUMPDEST DUP1 PUSH4 0xA61AA57 EQ PUSH2 0xED JUMPI DUP1 PUSH4 0x14C84F3A EQ PUSH2 0x12D JUMPI DUP1 PUSH4 0x1CB10FC3 EQ PUSH2 0x15A JUMPI PUSH1 0x0 DUP1 REVERT JUMPDEST CALLDATASIZE PUSH2 0xE8 JUMPI STOP JUMPDEST PUSH1 0x0 DUP1 REVERT JUMPDEST CALLVALUE DUP1 ISZERO PUSH2 0xF9 JUMPI PUSH1 0x0 DUP1 REVERT JUMPDEST POP PUSH2 0x11A PUSH2 0x108 CALLDATASIZE PUSH1 0x4 PUSH2 0xA5A JUMP JUMPDEST PUSH1 0x6 PUSH1 0x20 MSTORE PUSH1 0x0 SWAP1 DUP2 MSTORE PUSH1 0x40 SWAP1 KECCAK256 SLOAD DUP2 JUMP JUMPDEST PUSH1 0x40 MLOAD SWAP1 DUP2 MSTORE PUSH1 0x20 ADD JUMPDEST PUSH1 0x40 MLOAD DUP1 SWAP2 SUB SWAP1 RETURN JUMPDEST CALLVALUE DUP1 ISZERO PUSH2 0x139 JUMPI PUSH1 0x0 DUP1 REVERT JUMPDEST POP PUSH2 0x11A PUSH2 0x148 CALLDATASIZE PUSH1 0x4 PUSH2 0xA5A JUMP JUMPDEST PUSH1 0x3 PUSH1 0x20 MSTORE PUSH1 0x0 SWAP1 DUP2 MSTORE PUSH1 0x40 SWAP1 KECCAK256 SLOAD DUP2 JUMP JUMPDEST CALLVALUE DUP1 ISZERO PUSH2 0x166 JUMPI PUSH1 0x0 DUP1 REVERT JUMPDEST POP PUSH2 0x17A PUSH2 0x175 CALLDATASIZE PUSH1 0x4 PUSH2 0xB1F JUMP JUMPDEST PUSH2 0x366 JUMP JUMPDEST STOP JUMPDEST CALLVALUE DUP1 ISZERO PUSH2 0x188 JUMPI PUSH1 0x0 DUP1 REVERT JUMPDEST POP PUSH2 0x11A PUSH1 0x7 SLOAD DUP2 JUMP JUMPDEST CALLVALUE DUP1 ISZERO PUSH2 0x19E JUMPI PUSH1 0x0 DUP1 REVERT JUMPDEST POP PUSH2 0x1DF PUSH2 0x1AD CALLDATASIZE PUSH1 0x4 PUSH2 0xA5A JUMP JUMPDEST PUSH32 0x0 PUSH1 0x1 PUSH1 0x1 PUSH1 0xA0 SHL SUB SWAP1 DUP2 AND SWAP2 AND EQ SWAP1 JUMP JUMPDEST PUSH1 0x40 MLOAD SWAP1 ISZERO ISZERO DUP2 MSTORE PUSH1 0x20 ADD PUSH2 0x124 JUMP JUMPDEST CALLVALUE DUP1 ISZERO PUSH2 0x1FB JUMPI PUSH1 0x0 DUP1 REVERT JUMPDEST POP PUSH2 0x1DF PUSH2 0x20A CALLDATASIZE PUSH1 0x4 PUSH2 0xB66 JUMP JUMPDEST PUSH1 0x5 PUSH1 0x20 SWAP1 DUP2 MSTORE PUSH1 0x0 SWAP3 DUP4 MSTORE PUSH1 0x40 DUP1 DUP5 KECCAK256 SWAP1 SWAP2 MSTORE SWAP1 DUP3 MSTORE SWAP1 KECCAK256 SLOAD PUSH1 0xFF AND DUP2 JUMP JUMPDEST CALLVALUE DUP1 ISZERO PUSH2 0x236 JUMPI PUSH1 0x0 DUP1 REVERT JUMPDEST POP PUSH2 0x17A PUSH2 0x52D JUMP JUMPDEST PUSH2 0x17A PUSH2 0x24D CALLDATASIZE PUSH1 0x4 PUSH2 0xB92 JUMP JUMPDEST PUSH2 0x541 JUMP JUMPDEST CALLVALUE DUP1 ISZERO PUSH2 0x25E JUMPI PUSH1 0x0 DUP1 REVERT JUMPDEST POP PUSH32 0x0 JUMPDEST PUSH1 0x40 MLOAD PUSH1 0x1 PUSH1 0x1 PUSH1 0xA0 SHL SUB SWAP1 SWAP2 AND DUP2 MSTORE PUSH1 0x20 ADD PUSH2 0x124 JUMP JUMPDEST CALLVALUE DUP1 ISZERO PUSH2 0x2A5 JUMPI PUSH1 0x0 DUP1 REVERT JUMPDEST POP PUSH1 0x0 SLOAD PUSH1 0x1 PUSH1 0x1 PUSH1 0xA0 SHL SUB AND PUSH2 0x281 JUMP JUMPDEST CALLVALUE DUP1 ISZERO PUSH2 0x2C3 JUMPI PUSH1 0x0 DUP1 REVERT JUMPDEST POP PUSH2 0x17A PUSH2 0x2D2 CALLDATASIZE PUSH1 0x4 PUSH2 0xBAB JUMP JUMPDEST PUSH2 0x6D9 JUMP JUMPDEST CALLVALUE DUP1 ISZERO PUSH2 0x2E3 JUMPI PUSH1 0x0 DUP1 REVERT JUMPDEST POP PUSH2 0x2F7 PUSH2 0x2F2 CALLDATASIZE PUSH1 0x4 PUSH2 0xB92 JUMP JUMPDEST PUSH2 0x7D6 JUMP JUMPDEST PUSH1 0x40 MLOAD PUSH2 0x124 SWAP9 SWAP8 SWAP7 SWAP6 SWAP5 SWAP4 SWAP3 SWAP2 SWAP1 PUSH2 0xC2C JUMP JUMPDEST CALLVALUE DUP1 ISZERO PUSH2 0x317 JUMPI PUSH1 0x0 DUP1 REVERT JUMPDEST POP PUSH2 0x17A PUSH2 0x326 CALLDATASIZE PUSH1 0x4 PUSH2 0xA5A JUMP JUMPDEST PUSH2 0x8AD JUMP JUMPDEST CALLVALUE DUP1 ISZERO PUSH2 0x337 JUMPI PUSH1 0x0 DUP1 REVERT JUMPDEST POP PUSH2 0x1DF PUSH2 0x346 CALLDATASIZE PUSH1 0x4 PUSH2 0xC99 JUMP JUMPDEST PUSH1 0x4 PUSH1 0x20 SWAP1 DUP2 MSTORE PUSH1 0x0 SWAP3 DUP4 MSTORE PUSH1 0x40 DUP1 DUP5 KECCAK256 SWAP1 SWAP2 MSTORE SWAP1 DUP3 MSTORE SWAP1 KECCAK256 SLOAD PUSH1 0xFF AND DUP2 JUMP JUMPDEST PUSH2 0x36E PUSH2 0x8EB JUMP JUMPDEST PUSH1 0x0 PUSH2 0x378 PUSH2 0x915 JUMP JUMPDEST PUSH1 0x0 DUP5 DUP2 MSTORE PUSH1 0x2 PUSH1 0x20 SWAP1 DUP2 MSTORE PUSH1 0x40 SWAP2 DUP3 SWAP1 KECCAK256 DUP1 SLOAD SWAP3 MLOAD SWAP4 SWAP5 POP SWAP3 PUSH2 0x39E SWAP2 DUP7 SWAP2 ADD PUSH2 0xCC3 JUMP JUMPDEST PUSH1 0x40 MLOAD PUSH1 0x20 DUP2 DUP4 SUB SUB DUP2 MSTORE SWAP1 PUSH1 0x40 MSTORE DUP1 MLOAD SWAP1 PUSH1 0x20 ADD KECCAK256 EQ PUSH2 0x3F2 JUMPI PUSH1 0x40 MLOAD PUSH3 0x461BCD PUSH1 0xE5 SHL DUP2 MSTORE PUSH1 0x20 PUSH1 0x4 DUP3 ADD MSTORE PUSH1 0x9 PUSH1 0x24 DUP3 ADD MSTORE PUSH9 0x57726F6E67206B6579 PUSH1 0xB8 SHL PUSH1 0x44 DUP3 ADD MSTORE PUSH1 0x64 ADD JUMPDEST PUSH1 0x40 MLOAD DUP1 SWAP2 SUB SWAP1 REVERT JUMPDEST PUSH1 0x0 DUP2 PUSH1 0x3 ADD SLOAD DUP3 PUSH1 0x1 ADD SLOAD PUSH2 0x408 SWAP2 SWAP1 PUSH2 0xCF5 JUMP JUMPDEST PUSH1 0x2 DUP4 ADD DUP1 SLOAD PUSH1 0xFF NOT AND PUSH1 0x1 OR SWAP1 SSTORE PUSH1 0x1 PUSH1 0x1 PUSH1 0xA0 SHL SUB DUP5 AND PUSH1 0x0 SWAP1 DUP2 MSTORE PUSH1 0x3 PUSH1 0x20 MSTORE PUSH1 0x40 DUP2 KECCAK256 DUP1 SLOAD SWAP3 SWAP4 POP SWAP1 PUSH2 0x43E DUP4 PUSH2 0xD0E JUMP JUMPDEST SWAP2 SWAP1 POP SSTORE POP PUSH1 0x0 DUP4 PUSH1 0x1 PUSH1 0x1 PUSH1 0xA0 SHL SUB AND DUP3 PUSH1 0x40 MLOAD PUSH1 0x0 PUSH1 0x40 MLOAD DUP1 DUP4 SUB DUP2 DUP6 DUP8 GAS CALL SWAP3 POP POP POP RETURNDATASIZE DUP1 PUSH1 0x0 DUP2 EQ PUSH2 0x490 JUMPI PUSH1 0x40 MLOAD SWAP2 POP PUSH1 0x1F NOT PUSH1 0x3F RETURNDATASIZE ADD AND DUP3 ADD PUSH1 0x40 MSTORE RETURNDATASIZE DUP3 MSTORE RETURNDATASIZE PUSH1 0x0 PUSH1 0x20 DUP5 ADD RETURNDATACOPY PUSH2 0x495 JUMP JUMPDEST PUSH1 0x60 SWAP2 POP JUMPDEST POP POP SWAP1 POP DUP1 PUSH2 0x4D8 JUMPI PUSH1 0x40 MLOAD PUSH3 0x461BCD PUSH1 0xE5 SHL DUP2 MSTORE PUSH1 0x20 PUSH1 0x4 DUP3 ADD MSTORE PUSH1 0xF PUSH1 0x24 DUP3 ADD MSTORE PUSH15 0x151C985B9CD9995C8819985A5B1959 PUSH1 0x8A SHL PUSH1 0x44 DUP3 ADD MSTORE PUSH1 0x64 ADD PUSH2 0x3E9 JUMP JUMPDEST PUSH1 0x40 DUP1 MLOAD DUP8 DUP2 MSTORE PUSH1 0x20 DUP2 ADD DUP5 SWAP1 MSTORE PUSH1 0x1 PUSH1 0x1 PUSH1 0xA0 SHL SUB DUP7 AND SWAP2 PUSH32 0xFE54AC7E5780D800CD4825E83AB7968EDDD4CCAF49AA70BE34514EBF562C90FB SWAP2 ADD PUSH1 0x40 MLOAD DUP1 SWAP2 SUB SWAP1 LOG2 POP POP POP POP PUSH2 0x529 PUSH1 0x1 DUP1 SSTORE JUMP JUMPDEST POP POP JUMP JUMPDEST PUSH2 0x535 PUSH2 0x924 JUMP JUMPDEST PUSH2 0x53F PUSH1 0x0 PUSH2 0x982 JUMP JUMPDEST JUMP JUMPDEST PUSH1 0x0 PUSH2 0x54B PUSH2 0x915 JUMP JUMPDEST PUSH1 0x0 DUP4 DUP2 MSTORE PUSH1 0x2 PUSH1 0x20 MSTORE PUSH1 0x40 SWAP1 KECCAK256 PUSH1 0x6 DUP2 ADD SLOAD SWAP2 SWAP3 POP SWAP1 PUSH1 0xFF AND PUSH2 0x5A6 JUMPI PUSH1 0x40 MLOAD PUSH3 0x461BCD PUSH1 0xE5 SHL DUP2 MSTORE PUSH1 0x20 PUSH1 0x4 DUP3 ADD MSTORE PUSH1 0x12 PUSH1 0x24 DUP3 ADD MSTORE PUSH18 0x4D697373696F6E204E6F7420616374697665 PUSH1 0x70 SHL PUSH1 0x44 DUP3 ADD MSTORE PUSH1 0x64 ADD PUSH2 0x3E9 JUMP JUMPDEST PUSH1 0x1 PUSH1 0x1 PUSH1 0xA0 SHL SUB DUP3 AND PUSH1 0x0 SWAP1 DUP2 MSTORE PUSH1 0x3 PUSH1 0x20 MSTORE PUSH1 0x40 SWAP1 KECCAK256 SLOAD DUP4 EQ PUSH2 0x60D JUMPI PUSH1 0x40 MLOAD PUSH3 0x461BCD PUSH1 0xE5 SHL DUP2 MSTORE PUSH1 0x20 PUSH1 0x4 DUP3 ADD MSTORE PUSH1 0x1F PUSH1 0x24 DUP3 ADD MSTORE PUSH32 0x436F6D706C6574652070726576696F7573206C6576656C732066697273742100 PUSH1 0x44 DUP3 ADD MSTORE PUSH1 0x64 ADD PUSH2 0x3E9 JUMP JUMPDEST DUP1 PUSH1 0x5 ADD SLOAD CALLVALUE LT ISZERO PUSH2 0x654 JUMPI PUSH1 0x40 MLOAD PUSH3 0x461BCD PUSH1 0xE5 SHL DUP2 MSTORE PUSH1 0x20 PUSH1 0x4 DUP3 ADD MSTORE PUSH1 0x10 PUSH1 0x24 DUP3 ADD MSTORE PUSH16 0x496E73756666696369656E7420666565 PUSH1 0x80 SHL PUSH1 0x44 DUP3 ADD MSTORE PUSH1 0x64 ADD PUSH2 0x3E9 JUMP JUMPDEST PUSH1 0x0 DUP4 DUP2 MSTORE PUSH1 0x5 PUSH1 0x20 DUP2 DUP2 MSTORE PUSH1 0x40 DUP1 DUP5 KECCAK256 PUSH1 0x1 PUSH1 0x1 PUSH1 0xA0 SHL SUB DUP8 AND DUP6 MSTORE SWAP1 SWAP2 MSTORE DUP3 KECCAK256 DUP1 SLOAD PUSH1 0xFF NOT AND PUSH1 0x1 OR SWAP1 SSTORE DUP3 ADD SLOAD PUSH1 0x3 DUP4 ADD DUP1 SLOAD SWAP2 SWAP3 SWAP1 SWAP2 PUSH2 0x699 SWAP1 DUP5 SWAP1 PUSH2 0xCF5 JUMP JUMPDEST SWAP1 SWAP2 SSTORE POP POP PUSH1 0x40 MLOAD PUSH1 0x1 PUSH1 0x1 PUSH1 0xA0 SHL SUB DUP4 AND SWAP1 DUP5 SWAP1 PUSH32 0xF6274A6BE8BE8DCEFAD9914F7556A14333216390D2468F1B83669847B9EF1936 SWAP1 PUSH1 0x0 SWAP1 LOG3 POP POP POP JUMP JUMPDEST PUSH2 0x6E1 PUSH2 0x924 JUMP JUMPDEST PUSH1 0x40 MLOAD DUP1 PUSH2 0x100 ADD PUSH1 0x40 MSTORE DUP1 DUP4 DUP2 MSTORE PUSH1 0x20 ADD DUP6 DUP2 MSTORE PUSH1 0x20 ADD PUSH1 0x0 ISZERO ISZERO DUP2 MSTORE PUSH1 0x20 ADD PUSH1 0x0 DUP2 MSTORE PUSH1 0x20 ADD DUP7 DUP2 MSTORE PUSH1 0x20 ADD DUP5 DUP2 MSTORE PUSH1 0x20 ADD PUSH1 0x1 ISZERO ISZERO DUP2 MSTORE PUSH1 0x20 ADD DUP3 PUSH1 0x3C PUSH2 0x72B SWAP2 SWAP1 PUSH2 0xD27 JUMP JUMPDEST PUSH2 0x735 SWAP1 TIMESTAMP PUSH2 0xCF5 JUMP JUMPDEST SWAP1 MSTORE PUSH1 0x7 SLOAD PUSH1 0x0 SWAP1 DUP2 MSTORE PUSH1 0x2 PUSH1 0x20 DUP2 DUP2 MSTORE PUSH1 0x40 SWAP3 DUP4 SWAP1 KECCAK256 DUP5 MLOAD DUP2 SSTORE SWAP1 DUP5 ADD MLOAD PUSH1 0x1 DUP3 ADD SSTORE SWAP2 DUP4 ADD MLOAD SWAP1 DUP3 ADD DUP1 SLOAD PUSH1 0xFF NOT AND SWAP2 ISZERO ISZERO SWAP2 SWAP1 SWAP2 OR SWAP1 SSTORE PUSH1 0x60 DUP3 ADD MLOAD PUSH1 0x3 DUP3 ADD SSTORE PUSH1 0x80 DUP3 ADD MLOAD PUSH1 0x4 DUP3 ADD SWAP1 PUSH2 0x78D SWAP1 DUP3 PUSH2 0xDC7 JUMP JUMPDEST POP PUSH1 0xA0 DUP3 ADD MLOAD PUSH1 0x5 DUP3 ADD SSTORE PUSH1 0xC0 DUP3 ADD MLOAD PUSH1 0x6 DUP3 ADD DUP1 SLOAD PUSH1 0xFF NOT AND SWAP2 ISZERO ISZERO SWAP2 SWAP1 SWAP2 OR SWAP1 SSTORE PUSH1 0xE0 SWAP1 SWAP2 ADD MLOAD PUSH1 0x7 SWAP2 DUP3 ADD SSTORE DUP1 SLOAD SWAP1 PUSH1 0x0 PUSH2 0x7CA DUP4 PUSH2 0xD0E JUMP JUMPDEST SWAP2 SWAP1 POP SSTORE POP POP POP POP POP POP JUMP JUMPDEST PUSH1 0x2 PUSH1 0x20 DUP2 SWAP1 MSTORE PUSH1 0x0 SWAP2 DUP3 MSTORE PUSH1 0x40 SWAP1 SWAP2 KECCAK256 DUP1 SLOAD PUSH1 0x1 DUP3 ADD SLOAD SWAP3 DUP3 ADD SLOAD PUSH1 0x3 DUP4 ADD SLOAD PUSH1 0x4 DUP5 ADD DUP1 SLOAD SWAP4 SWAP6 SWAP5 PUSH1 0xFF SWAP1 SWAP4 AND SWAP4 SWAP2 SWAP3 SWAP2 PUSH2 0x812 SWAP1 PUSH2 0xD3E JUMP JUMPDEST DUP1 PUSH1 0x1F ADD PUSH1 0x20 DUP1 SWAP2 DIV MUL PUSH1 0x20 ADD PUSH1 0x40 MLOAD SWAP1 DUP2 ADD PUSH1 0x40 MSTORE DUP1 SWAP3 SWAP2 SWAP1 DUP2 DUP2 MSTORE PUSH1 0x20 ADD DUP3 DUP1 SLOAD PUSH2 0x83E SWAP1 PUSH2 0xD3E JUMP JUMPDEST DUP1 ISZERO PUSH2 0x88B JUMPI DUP1 PUSH1 0x1F LT PUSH2 0x860 JUMPI PUSH2 0x100 DUP1 DUP4 SLOAD DIV MUL DUP4 MSTORE SWAP2 PUSH1 0x20 ADD SWAP2 PUSH2 0x88B JUMP JUMPDEST DUP3 ADD SWAP2 SWAP1 PUSH1 0x0 MSTORE PUSH1 0x20 PUSH1 0x0 KECCAK256 SWAP1 JUMPDEST DUP2 SLOAD DUP2 MSTORE SWAP1 PUSH1 0x1 ADD SWAP1 PUSH1 0x20 ADD DUP1 DUP4 GT PUSH2 0x86E JUMPI DUP3 SWAP1 SUB PUSH1 0x1F AND DUP3 ADD SWAP2 JUMPDEST POP POP POP POP PUSH1 0x5 DUP4 ADD SLOAD PUSH1 0x6 DUP5 ADD SLOAD PUSH1 0x7 SWAP1 SWAP5 ADD SLOAD SWAP3 SWAP4 SWAP1 SWAP3 PUSH1 0xFF SWAP1 SWAP2 AND SWAP2 POP DUP9 JUMP JUMPDEST PUSH2 0x8B5 PUSH2 0x924 JUMP JUMPDEST PUSH1 0x1 PUSH1 0x1 PUSH1 0xA0 SHL SUB DUP2 AND PUSH2 0x8DF JUMPI PUSH1 0x40 MLOAD PUSH4 0x1E4FBDF7 PUSH1 0xE0 SHL DUP2 MSTORE PUSH1 0x0 PUSH1 0x4 DUP3 ADD MSTORE PUSH1 0x24 ADD PUSH2 0x3E9 JUMP JUMPDEST PUSH2 0x8E8 DUP2 PUSH2 0x982 JUMP JUMPDEST POP JUMP JUMPDEST PUSH1 0x2 PUSH1 0x1 SLOAD SUB PUSH2 0x90E JUMPI PUSH1 0x40 MLOAD PUSH4 0x3EE5AEB5 PUSH1 0xE0 SHL DUP2 MSTORE PUSH1 0x4 ADD PUSH1 0x40 MLOAD DUP1 SWAP2 SUB SWAP1 REVERT JUMPDEST PUSH1 0x2 PUSH1 0x1 SSTORE JUMP JUMPDEST PUSH1 0x0 PUSH2 0x91F PUSH2 0x9D2 JUMP JUMPDEST SWAP1 POP SWAP1 JUMP JUMPDEST PUSH2 0x92C PUSH2 0x915 JUMP JUMPDEST PUSH1 0x1 PUSH1 0x1 PUSH1 0xA0 SHL SUB AND PUSH2 0x947 PUSH1 0x0 SLOAD PUSH1 0x1 PUSH1 0x1 PUSH1 0xA0 SHL SUB AND SWAP1 JUMP JUMPDEST PUSH1 0x1 PUSH1 0x1 PUSH1 0xA0 SHL SUB AND EQ PUSH2 0x53F JUMPI PUSH2 0x95D PUSH2 0x915 JUMP JUMPDEST PUSH1 0x40 MLOAD PUSH4 0x118CDAA7 PUSH1 0xE0 SHL DUP2 MSTORE PUSH1 0x1 PUSH1 0x1 PUSH1 0xA0 SHL SUB SWAP1 SWAP2 AND PUSH1 0x4 DUP3 ADD MSTORE PUSH1 0x24 ADD PUSH2 0x3E9 JUMP JUMPDEST PUSH1 0x0 DUP1 SLOAD PUSH1 0x1 PUSH1 0x1 PUSH1 0xA0 SHL SUB DUP4 DUP2 AND PUSH1 0x1 PUSH1 0x1 PUSH1 0xA0 SHL SUB NOT DUP4 AND DUP2 OR DUP5 SSTORE PUSH1 0x40 MLOAD SWAP2 SWAP1 SWAP3 AND SWAP3 DUP4 SWAP2 PUSH32 0x8BE0079C531659141344CD1FD0A4F28419497F9722A3DAAFE3B4186F6B6457E0 SWAP2 SWAP1 LOG3 POP POP JUMP JUMPDEST PUSH1 0x0 CALLDATASIZE PUSH1 0x14 DUP1 DUP3 LT DUP1 ISZERO SWAP1 PUSH2 0xA0F JUMPI POP PUSH32 0x0 PUSH1 0x1 PUSH1 0x1 PUSH1 0xA0 SHL SUB AND CALLER EQ JUMPDEST ISZERO PUSH2 0xA36 JUMPI PUSH2 0xA23 CALLDATASIZE DUP3 DUP5 SUB DUP2 PUSH1 0x0 PUSH2 0xE87 JUMP JUMPDEST PUSH2 0xA2C SWAP2 PUSH2 0xEB1 JUMP JUMPDEST PUSH1 0x60 SHR SWAP3 POP POP POP SWAP1 JUMP JUMPDEST CALLER SWAP3 POP POP POP SWAP1 JUMP JUMPDEST DUP1 CALLDATALOAD PUSH1 0x1 PUSH1 0x1 PUSH1 0xA0 SHL SUB DUP2 AND DUP2 EQ PUSH2 0xA55 JUMPI PUSH1 0x0 DUP1 REVERT JUMPDEST SWAP2 SWAP1 POP JUMP JUMPDEST PUSH1 0x0 PUSH1 0x20 DUP3 DUP5 SUB SLT ISZERO PUSH2 0xA6C JUMPI PUSH1 0x0 DUP1 REVERT JUMPDEST PUSH2 0xA75 DUP3 PUSH2 0xA3E JUMP JUMPDEST SWAP4 SWAP3 POP POP POP JUMP JUMPDEST PUSH4 0x4E487B71 PUSH1 0xE0 SHL PUSH1 0x0 MSTORE PUSH1 0x41 PUSH1 0x4 MSTORE PUSH1 0x24 PUSH1 0x0 REVERT JUMPDEST PUSH1 0x0 DUP3 PUSH1 0x1F DUP4 ADD SLT PUSH2 0xAA3 JUMPI PUSH1 0x0 DUP1 REVERT JUMPDEST DUP2 CALLDATALOAD PUSH8 0xFFFFFFFFFFFFFFFF DUP1 DUP3 GT ISZERO PUSH2 0xABE JUMPI PUSH2 0xABE PUSH2 0xA7C JUMP JUMPDEST PUSH1 0x40 MLOAD PUSH1 0x1F DUP4 ADD PUSH1 0x1F NOT SWAP1 DUP2 AND PUSH1 0x3F ADD AND DUP2 ADD SWAP1 DUP3 DUP3 GT DUP2 DUP4 LT OR ISZERO PUSH2 0xAE6 JUMPI PUSH2 0xAE6 PUSH2 0xA7C JUMP JUMPDEST DUP2 PUSH1 0x40 MSTORE DUP4 DUP2 MSTORE DUP7 PUSH1 0x20 DUP6 DUP9 ADD ADD GT ISZERO PUSH2 0xAFF JUMPI PUSH1 0x0 DUP1 REVERT JUMPDEST DUP4 PUSH1 0x20 DUP8 ADD PUSH1 0x20 DUP4 ADD CALLDATACOPY PUSH1 0x0 PUSH1 0x20 DUP6 DUP4 ADD ADD MSTORE DUP1 SWAP5 POP POP POP POP POP SWAP3 SWAP2 POP POP JUMP JUMPDEST PUSH1 0x0 DUP1 PUSH1 0x40 DUP4 DUP6 SUB SLT ISZERO PUSH2 0xB32 JUMPI PUSH1 0x0 DUP1 REVERT JUMPDEST DUP3 CALLDATALOAD SWAP2 POP PUSH1 0x20 DUP4 ADD CALLDATALOAD PUSH8 0xFFFFFFFFFFFFFFFF DUP2 GT ISZERO PUSH2 0xB50 JUMPI PUSH1 0x0 DUP1 REVERT JUMPDEST PUSH2 0xB5C DUP6 DUP3 DUP7 ADD PUSH2 0xA92 JUMP JUMPDEST SWAP2 POP POP SWAP3 POP SWAP3 SWAP1 POP JUMP JUMPDEST PUSH1 0x0 DUP1 PUSH1 0x40 DUP4 DUP6 SUB SLT ISZERO PUSH2 0xB79 JUMPI PUSH1 0x0 DUP1 REVERT JUMPDEST DUP3 CALLDATALOAD SWAP2 POP PUSH2 0xB89 PUSH1 0x20 DUP5 ADD PUSH2 0xA3E JUMP JUMPDEST SWAP1 POP SWAP3 POP SWAP3 SWAP1 POP JUMP JUMPDEST PUSH1 0x0 PUSH1 0x20 DUP3 DUP5 SUB SLT ISZERO PUSH2 0xBA4 JUMPI PUSH1 0x0 DUP1 REVERT JUMPDEST POP CALLDATALOAD SWAP2 SWAP1 POP JUMP JUMPDEST PUSH1 0x0 DUP1 PUSH1 0x0 DUP1 PUSH1 0x0 PUSH1 0xA0 DUP7 DUP9 SUB SLT ISZERO PUSH2 0xBC3 JUMPI PUSH1 0x0 DUP1 REVERT JUMPDEST DUP6 CALLDATALOAD PUSH8 0xFFFFFFFFFFFFFFFF DUP2 GT ISZERO PUSH2 0xBDA JUMPI PUSH1 0x0 DUP1 REVERT JUMPDEST PUSH2 0xBE6 DUP9 DUP3 DUP10 ADD PUSH2 0xA92 JUMP JUMPDEST SWAP9 PUSH1 0x20 DUP9 ADD CALLDATALOAD SWAP9 POP PUSH1 0x40 DUP9 ADD CALLDATALOAD SWAP8 PUSH1 0x60 DUP2 ADD CALLDATALOAD SWAP8 POP PUSH1 0x80 ADD CALLDATALOAD SWAP6 POP SWAP4 POP POP POP POP JUMP JUMPDEST PUSH1 0x0 JUMPDEST DUP4 DUP2 LT ISZERO PUSH2 0xC23 JUMPI DUP2 DUP2 ADD MLOAD DUP4 DUP3 ADD MSTORE PUSH1 0x20 ADD PUSH2 0xC0B JUMP JUMPDEST POP POP PUSH1 0x0 SWAP2 ADD MSTORE JUMP JUMPDEST PUSH1 0x0 PUSH2 0x100 DUP11 DUP4 MSTORE DUP10 PUSH1 0x20 DUP5 ADD MSTORE DUP9 ISZERO ISZERO PUSH1 0x40 DUP5 ADD MSTORE DUP8 PUSH1 0x60 DUP5 ADD MSTORE DUP1 PUSH1 0x80 DUP5 ADD MSTORE DUP7 MLOAD DUP1 DUP3 DUP6 ADD MSTORE PUSH2 0x120 SWAP2 POP PUSH2 0xC6A DUP2 DUP4 DUP7 ADD PUSH1 0x20 DUP12 ADD PUSH2 0xC08 JUMP JUMPDEST PUSH1 0xA0 DUP5 ADD SWAP7 SWAP1 SWAP7 MSTORE SWAP4 ISZERO ISZERO PUSH1 0xC0 DUP4 ADD MSTORE POP PUSH1 0xE0 DUP2 ADD SWAP2 SWAP1 SWAP2 MSTORE PUSH1 0x1F SWAP1 SWAP3 ADD PUSH1 0x1F NOT AND SWAP1 SWAP2 ADD ADD SWAP6 SWAP5 POP POP POP POP POP JUMP JUMPDEST PUSH1 0x0 DUP1 PUSH1 0x40 DUP4 DUP6 SUB SLT ISZERO PUSH2 0xCAC JUMPI PUSH1 0x0 DUP1 REVERT JUMPDEST PUSH2 0xCB5 DUP4 PUSH2 0xA3E JUMP JUMPDEST SWAP5 PUSH1 0x20 SWAP4 SWAP1 SWAP4 ADD CALLDATALOAD SWAP4 POP POP POP JUMP JUMPDEST PUSH1 0x0 DUP3 MLOAD PUSH2 0xCD5 DUP2 DUP5 PUSH1 0x20 DUP8 ADD PUSH2 0xC08 JUMP JUMPDEST SWAP2 SWAP1 SWAP2 ADD SWAP3 SWAP2 POP POP JUMP JUMPDEST PUSH4 0x4E487B71 PUSH1 0xE0 SHL PUSH1 0x0 MSTORE PUSH1 0x11 PUSH1 0x4 MSTORE PUSH1 0x24 PUSH1 0x0 REVERT JUMPDEST DUP1 DUP3 ADD DUP1 DUP3 GT ISZERO PUSH2 0xD08 JUMPI PUSH2 0xD08 PUSH2 0xCDF JUMP JUMPDEST SWAP3 SWAP2 POP POP JUMP JUMPDEST PUSH1 0x0 PUSH1 0x1 DUP3 ADD PUSH2 0xD20 JUMPI PUSH2 0xD20 PUSH2 0xCDF JUMP JUMPDEST POP PUSH1 0x1 ADD SWAP1 JUMP JUMPDEST DUP1 DUP3 MUL DUP2 ISZERO DUP3 DUP3 DIV DUP5 EQ OR PUSH2 0xD08 JUMPI PUSH2 0xD08 PUSH2 0xCDF JUMP JUMPDEST PUSH1 0x1 DUP2 DUP2 SHR SWAP1 DUP3 AND DUP1 PUSH2 0xD52 JUMPI PUSH1 0x7F DUP3 AND SWAP2 POP JUMPDEST PUSH1 0x20 DUP3 LT DUP2 SUB PUSH2 0xD72 JUMPI PUSH4 0x4E487B71 PUSH1 0xE0 SHL PUSH1 0x0 MSTORE PUSH1 0x22 PUSH1 0x4 MSTORE PUSH1 0x24 PUSH1 0x0 REVERT JUMPDEST POP SWAP2 SWAP1 POP JUMP JUMPDEST PUSH1 0x1F DUP3 GT ISZERO PUSH2 0xDC2 JUMPI PUSH1 0x0 DUP2 DUP2 MSTORE PUSH1 0x20 DUP2 KECCAK256 PUSH1 0x1F DUP6 ADD PUSH1 0x5 SHR DUP2 ADD PUSH1 0x20 DUP7 LT ISZERO PUSH2 0xD9F JUMPI POP DUP1 JUMPDEST PUSH1 0x1F DUP6 ADD PUSH1 0x5 SHR DUP3 ADD SWAP2 POP JUMPDEST DUP2 DUP2 LT ISZERO PUSH2 0xDBE JUMPI DUP3 DUP2 SSTORE PUSH1 0x1 ADD PUSH2 0xDAB JUMP JUMPDEST POP POP POP JUMPDEST POP POP POP JUMP JUMPDEST DUP2 MLOAD PUSH8 0xFFFFFFFFFFFFFFFF DUP2 GT ISZERO PUSH2 0xDE1 JUMPI PUSH2 0xDE1 PUSH2 0xA7C JUMP JUMPDEST PUSH2 0xDF5 DUP2 PUSH2 0xDEF DUP5 SLOAD PUSH2 0xD3E JUMP JUMPDEST DUP5 PUSH2 0xD78 JUMP JUMPDEST PUSH1 0x20 DUP1 PUSH1 0x1F DUP4 GT PUSH1 0x1 DUP2 EQ PUSH2 0xE2A JUMPI PUSH1 0x0 DUP5 ISZERO PUSH2 0xE12 JUMPI POP DUP6 DUP4 ADD MLOAD JUMPDEST PUSH1 0x0 NOT PUSH1 0x3 DUP7 SWAP1 SHL SHR NOT AND PUSH1 0x1 DUP6 SWAP1 SHL OR DUP6 SSTORE PUSH2 0xDBE JUMP JUMPDEST PUSH1 0x0 DUP6 DUP2 MSTORE PUSH1 0x20 DUP2 KECCAK256 PUSH1 0x1F NOT DUP7 AND SWAP2 JUMPDEST DUP3 DUP2 LT ISZERO PUSH2 0xE59 JUMPI DUP9 DUP7 ADD MLOAD DUP3 SSTORE SWAP5 DUP5 ADD SWAP5 PUSH1 0x1 SWAP1 SWAP2 ADD SWAP1 DUP5 ADD PUSH2 0xE3A JUMP JUMPDEST POP DUP6 DUP3 LT ISZERO PUSH2 0xE77 JUMPI DUP8 DUP6 ADD MLOAD PUSH1 0x0 NOT PUSH1 0x3 DUP9 SWAP1 SHL PUSH1 0xF8 AND SHR NOT AND DUP2 SSTORE JUMPDEST POP POP POP POP POP PUSH1 0x1 SWAP1 DUP2 SHL ADD SWAP1 SSTORE POP JUMP JUMPDEST PUSH1 0x0 DUP1 DUP6 DUP6 GT ISZERO PUSH2 0xE97 JUMPI PUSH1 0x0 DUP1 REVERT JUMPDEST DUP4 DUP7 GT ISZERO PUSH2 0xEA4 JUMPI PUSH1 0x0 DUP1 REVERT JUMPDEST POP POP DUP3 ADD SWAP4 SWAP2 SWAP1 SWAP3 SUB SWAP2 POP JUMP JUMPDEST PUSH12 0xFFFFFFFFFFFFFFFFFFFFFFFF NOT DUP2 CALLDATALOAD DUP2 DUP2 AND SWAP2 PUSH1 0x14 DUP6 LT ISZERO PUSH2 0xEDE JUMPI DUP1 DUP2 DUP7 PUSH1 0x14 SUB PUSH1 0x3 SHL SHL DUP4 AND AND SWAP3 POP JUMPDEST POP POP SWAP3 SWAP2 POP POP JUMP INVALID LOG2 PUSH5 0x6970667358 0x22 SLT KECCAK256 0xC2 SWAP9 0xE7 PUSH11 0xE89039F8B8537A5EA7455A 0xC7 0xC8 RETURN 0x2F DUP6 0xC5 0xEF 0xDA PUSH2 0xF48A GAS 0xE5 0x29 DUP8 PUSH31 0xB064736F6C6343000814003300000000000000000000000000000000000000 "},"methodIdentifiers":{"claimTreasure(uint256,string)":"1cb10fc3","hasCompletedQuest(address,uint256)":"f8be7347","hasJoined(uint256,address)":"68194719","isTrustedForwarder(address)":"572b6c05","joinQuest(uint256)":"78ff2bda","launchNewQuest(string,uint256,uint256,bytes32,uint256)":"d5a3e38d","owner()":"8da5cb5b","playerLevel(address)":"14c84f3a","quests(uint256)":"e085f980","renounceOwnership()":"715018a6","submissionCommitments(address)":"0a61aa57","totalQuests()":"54fcf2e0","transferOwnership(address)":"f2fde38b","trustedForwarder()":"7da0a877"}}}}}